{
  "contractName": "Lottery",
  "abi": [
    {
      "inputs": [],
      "payable": false,
      "stateMutability": "nonpayable",
      "type": "constructor"
    },
    {
      "constant": true,
      "inputs": [],
      "name": "manager",
      "outputs": [
        {
          "internalType": "address",
          "name": "",
          "type": "address"
        }
      ],
      "payable": false,
      "stateMutability": "view",
      "type": "function"
    },
    {
      "constant": false,
      "inputs": [],
      "name": "enter",
      "outputs": [],
      "payable": true,
      "stateMutability": "payable",
      "type": "function"
    },
    {
      "constant": false,
      "inputs": [],
      "name": "pickWinner",
      "outputs": [],
      "payable": false,
      "stateMutability": "nonpayable",
      "type": "function"
    },
    {
      "constant": true,
      "inputs": [],
      "name": "getPlayers",
      "outputs": [
        {
          "internalType": "address payable[]",
          "name": "",
          "type": "address[]"
        }
      ],
      "payable": false,
      "stateMutability": "view",
      "type": "function"
    }
  ],
  "bytecode": "0x608060405234801561001057600080fd5b50336000806101000a81548173ffffffffffffffffffffffffffffffffffffffff021916908373ffffffffffffffffffffffffffffffffffffffff160217905550610535806100606000396000f3fe60806040526004361061003f5760003560e01c8063481c6a75146100445780635d495aea1461009b5780638b5b9ccc146100b2578063e97dcb621461011e575b600080fd5b34801561005057600080fd5b50610059610128565b604051808273ffffffffffffffffffffffffffffffffffffffff1673ffffffffffffffffffffffffffffffffffffffff16815260200191505060405180910390f35b3480156100a757600080fd5b506100b061014d565b005b3480156100be57600080fd5b506100c7610288565b6040518080602001828103825283818151815260200191508051906020019060200280838360005b8381101561010a5780820151818401526020810190506100ef565b505050509050019250505060405180910390f35b610126610316565b005b6000809054906101000a900473ffffffffffffffffffffffffffffffffffffffff1681565b6000809054906101000a900473ffffffffffffffffffffffffffffffffffffffff1673ffffffffffffffffffffffffffffffffffffffff163373ffffffffffffffffffffffffffffffffffffffff16146101a657600080fd5b60006001805490506101b6610391565b816101bd57fe5b069050600181815481106101cd57fe5b9060005260206000200160009054906101000a900473ffffffffffffffffffffffffffffffffffffffff1673ffffffffffffffffffffffffffffffffffffffff166108fc479081150290604051600060405180830381858888f1935050505015801561023d573d6000803e3d6000fd5b50600060405190808252806020026020018201604052801561026e5781602001602082028038833980820191505090505b5060019080519060200190610284929190610433565b5050565b6060600180548060200260200160405190810160405280929190818152602001828054801561030c57602002820191906000526020600020905b8160009054906101000a900473ffffffffffffffffffffffffffffffffffffffff1673ffffffffffffffffffffffffffffffffffffffff16815260200190600101908083116102c2575b5050505050905090565b662386f26fc10000341161032957600080fd5b60013390806001815401808255809150509060018203906000526020600020016000909192909190916101000a81548173ffffffffffffffffffffffffffffffffffffffff021916908373ffffffffffffffffffffffffffffffffffffffff16021790555050565b60004442600160405160200180848152602001838152602001828054801561040e57602002820191906000526020600020905b8160009054906101000a900473ffffffffffffffffffffffffffffffffffffffff1673ffffffffffffffffffffffffffffffffffffffff16815260200190600101908083116103c4575b505093505050506040516020818303038152906040528051906020012060001c905090565b8280548282559060005260206000209081019282156104ac579160200282015b828111156104ab5782518260006101000a81548173ffffffffffffffffffffffffffffffffffffffff021916908373ffffffffffffffffffffffffffffffffffffffff16021790555091602001919060010190610453565b5b5090506104b991906104bd565b5090565b6104fd91905b808211156104f957600081816101000a81549073ffffffffffffffffffffffffffffffffffffffff0219169055506001016104c3565b5090565b9056fea265627a7a72315820e17832f2bec75c381d27b3ec1df1629e0d30e6a6aac6c105aa32b5cf6068316d64736f6c63430005100032",
  "source": "pragma solidity 0.5.16;\r\n\r\ncontract Lottery{\r\n    address public manager;\r\n    address payable[] players;\r\n\r\n    constructor() public {\r\n        manager = msg.sender;\r\n    }\r\n\r\n    function enter() public payable {\r\n        require(msg.value > .01 ether);\r\n\r\n        players.push(msg.sender);\r\n    }\r\n\r\n    function random() private view returns (uint){\r\n        return uint(keccak256(abi.encodePacked(block.difficulty,now,players)));\r\n    }\r\n\r\n    modifier restricted(){\r\n        require(msg.sender == manager);\r\n        _;\r\n    }\r\n    \r\n    function pickWinner() public restricted {\r\n        uint index = random() % players.length;\r\n        players[index].transfer(address(this).balance);\r\n        players = new address payable[](0); //resets the contract for further use\r\n    }\r\n\r\n    function getPlayers() public view returns (address payable[] memory){\r\n        return players;\r\n    }\r\n\r\n}",
  "sourcePath": "F:/Blockchain/proj/Lottery/contracts/Lottery.sol",
  "compiler": {
    "name": "solc",
    "version": "0.5.16+commit.9c3226ce.Emscripten.clang"
  },
  "schemaVersion": "3.2.3",
  "updatedAt": "2020-09-19T14:38:37.203Z",
  "devdoc": {
    "methods": {}
  },
  "userdoc": {
    "methods": {}
  }
}